0000000010
TW0495BANCSSIT            2018072320180722049520180723001               I O                                                                   000斯國鈞斯國鈞斯國鈞斯國鈞斯國鈞斯國鈞斯國鈞斯國鈞斯國鈞斯國鈞斯國鈞斯國斯國鈞斯國鈞斯國鈞斯國鈞斯國鈞斯國鈞斯國鈞斯國鈞斯國鈞斯國鈞斯國鈞斯國鈞斯國鈞斯國鈞斯國鈞斯國鈞斯國鈞斯               斯國鈞斯國鈞斯國鈞斯國鈞斯國鈞斯國 A123456789    A04951234567890                    TWD               000斯國鈞斯國鈞斯國鈞斯國鈞斯國鈞斯國鈞斯國鈞斯國鈞斯國鈞斯國鈞斯國鈞斯國斯國鈞斯國鈞斯國鈞斯國鈞斯國鈞斯國鈞斯國鈞斯國鈞斯國鈞斯國鈞斯國鈞斯國鈞斯國鈞斯國鈞斯國鈞斯國鈞斯國鈞斯 0495          斯國鈞斯國鈞斯國鈞斯國鈞斯國鈞斯國                     00039837      斯國鈞斯國鈞斯國鈞斯國鈞斯國鈞斯國鈞斯國鈞斯國鈞斯國鈞斯國鈞斯國鈞斯國A                                                                                                                                                                          
TW0495BANCSSIT            2018072320180722049520180723001               I O                                                                   000斯國鈞斯國鈞斯國鈞斯國鈞斯國鈞斯國鈞斯國鈞斯國鈞斯國鈞斯國鈞斯國鈞斯國斯國鈞斯國鈞斯國鈞斯國鈞斯國鈞斯國鈞斯國鈞斯國鈞斯國鈞斯國鈞斯國鈞斯國鈞斯國鈞斯國鈞斯國鈞斯國鈞斯國鈞斯               斯國鈞斯國鈞斯國鈞斯國鈞斯國鈞斯國 A123456789    A04951234567890                    TWD               000斯國鈞斯國鈞斯國鈞斯國鈞斯國鈞斯國鈞斯國鈞斯國鈞斯國鈞斯國鈞斯國鈞斯國斯國鈞斯國鈞斯國鈞斯國鈞斯國鈞斯國鈞斯國鈞斯國鈞斯國鈞斯國鈞斯國鈞斯國鈞斯國鈞斯國鈞斯國鈞斯國鈞斯國鈞斯 0495          斯國鈞斯國鈞斯國鈞斯國鈞斯國鈞斯國                     00039837      斯國鈞斯國鈞斯國鈞斯國鈞斯國鈞斯國鈞斯國鈞斯國鈞斯國鈞斯國鈞斯國鈞斯國A                                                                                                                                                                          
TW0495BANCSSIT            2018072320180722049520180723001               I O                                                                   000斯國鈞斯國鈞斯國鈞斯國鈞斯國鈞斯國鈞斯國鈞斯國鈞斯國鈞斯國鈞斯國鈞斯國斯國鈞斯國鈞斯國鈞斯國鈞斯國鈞斯國鈞斯國鈞斯國鈞斯國鈞斯國鈞斯國鈞斯國鈞斯國鈞斯國鈞斯國鈞斯國鈞斯國鈞斯               斯國鈞斯國鈞斯國鈞斯國鈞斯國鈞斯國 A123456789    A04951234567890                    TWD               000斯國鈞斯國鈞斯國鈞斯國鈞斯國鈞斯國鈞斯國鈞斯國鈞斯國鈞斯國鈞斯國鈞斯國斯國鈞斯國鈞斯國鈞斯國鈞斯國鈞斯國鈞斯國鈞斯國鈞斯國鈞斯國鈞斯國鈞斯國鈞斯國鈞斯國鈞斯國鈞斯國鈞斯國鈞斯 0495          斯國鈞斯國鈞斯國鈞斯國鈞斯國鈞斯國                     00039837      斯國鈞斯國鈞斯國鈞斯國鈞斯國鈞斯國鈞斯國鈞斯國鈞斯國鈞斯國鈞斯國鈞斯國A                                                                                                                                                                          
TW0495BANCSSIT            2018072320180722049520180723001               I O                                                                   000斯國鈞斯國鈞斯國鈞斯國鈞斯國鈞斯國鈞斯國鈞斯國鈞斯國鈞斯國鈞斯國鈞斯國斯國鈞斯國鈞斯國鈞斯國鈞斯國鈞斯國鈞斯國鈞斯國鈞斯國鈞斯國鈞斯國鈞斯國鈞斯國鈞斯國鈞斯國鈞斯國鈞斯國鈞斯               斯國鈞斯國鈞斯國鈞斯國鈞斯國鈞斯國 A123456789    A04951234567890                    TWD               000斯國鈞斯國鈞斯國鈞斯國鈞斯國鈞斯國鈞斯國鈞斯國鈞斯國鈞斯國鈞斯國鈞斯國斯國鈞斯國鈞斯國鈞斯國鈞斯國鈞斯國鈞斯國鈞斯國鈞斯國鈞斯國鈞斯國鈞斯國鈞斯國鈞斯國鈞斯國鈞斯國鈞斯國鈞斯 0495          斯國鈞斯國鈞斯國鈞斯國鈞斯國鈞斯國                     00039837      斯國鈞斯國鈞斯國鈞斯國鈞斯國鈞斯國鈞斯國鈞斯國鈞斯國鈞斯國鈞斯國鈞斯國A                                                                                                                                                                          
TW0495BANCSSIT            2018072320180722049520180723001               I O                                                                   000斯國鈞斯國鈞斯國鈞斯國鈞斯國鈞斯國鈞斯國鈞斯國鈞斯國鈞斯國鈞斯國鈞斯國斯國鈞斯國鈞斯國鈞斯國鈞斯國鈞斯國鈞斯國鈞斯國鈞斯國鈞斯國鈞斯國鈞斯國鈞斯國鈞斯國鈞斯國鈞斯國鈞斯國鈞斯               斯國鈞斯國鈞斯國鈞斯國鈞斯國鈞斯國 A123456789    A04951234567890                    TWD               000斯國鈞斯國鈞斯國鈞斯國鈞斯國鈞斯國鈞斯國鈞斯國鈞斯國鈞斯國鈞斯國鈞斯國斯國鈞斯國鈞斯國鈞斯國鈞斯國鈞斯國鈞斯國鈞斯國鈞斯國鈞斯國鈞斯國鈞斯國鈞斯國鈞斯國鈞斯國鈞斯國鈞斯國鈞斯 0495          斯國鈞斯國鈞斯國鈞斯國鈞斯國鈞斯國                     00039837      斯國鈞斯國鈞斯國鈞斯國鈞斯國鈞斯國鈞斯國鈞斯國鈞斯國鈞斯國鈞斯國鈞斯國A                                                                                                                                                                          
TW0495BANCSSIT            2018072320180722049520180723001               I O                                                                   000斯國鈞斯國鈞斯國鈞斯國鈞斯國鈞斯國鈞斯國鈞斯國鈞斯國鈞斯國鈞斯國鈞斯國斯國鈞斯國鈞斯國鈞斯國鈞斯國鈞斯國鈞斯國鈞斯國鈞斯國鈞斯國鈞斯國鈞斯國鈞斯國鈞斯國鈞斯國鈞斯國鈞斯國鈞斯               斯國鈞斯國鈞斯國鈞斯國鈞斯國鈞斯國 A123456789    A04951234567890                    TWD               000斯國鈞斯國鈞斯國鈞斯國鈞斯國鈞斯國鈞斯國鈞斯國鈞斯國鈞斯國鈞斯國鈞斯國斯國鈞斯國鈞斯國鈞斯國鈞斯國鈞斯國鈞斯國鈞斯國鈞斯國鈞斯國鈞斯國鈞斯國鈞斯國鈞斯國鈞斯國鈞斯國鈞斯國鈞斯 0495          斯國鈞斯國鈞斯國鈞斯國鈞斯國鈞斯國                     00039837      斯國鈞斯國鈞斯國鈞斯國鈞斯國鈞斯國鈞斯國鈞斯國鈞斯國鈞斯國鈞斯國鈞斯國A                                                                                                                                                                          
TW0495BANCSSIT            2018072320180722049520180723001               I O                                                                   000斯國鈞斯國鈞斯國鈞斯國鈞斯國鈞斯國鈞斯國鈞斯國鈞斯國鈞斯國鈞斯國鈞斯國斯國鈞斯國鈞斯國鈞斯國鈞斯國鈞斯國鈞斯國鈞斯國鈞斯國鈞斯國鈞斯國鈞斯國鈞斯國鈞斯國鈞斯國鈞斯國鈞斯國鈞斯               斯國鈞斯國鈞斯國鈞斯國鈞斯國鈞斯國 A123456789    A04951234567890                    TWD               000斯國鈞斯國鈞斯國鈞斯國鈞斯國鈞斯國鈞斯國鈞斯國鈞斯國鈞斯國鈞斯國鈞斯國斯國鈞斯國鈞斯國鈞斯國鈞斯國鈞斯國鈞斯國鈞斯國鈞斯國鈞斯國鈞斯國鈞斯國鈞斯國鈞斯國鈞斯國鈞斯國鈞斯國鈞斯 0495          斯國鈞斯國鈞斯國鈞斯國鈞斯國鈞斯國                     00039837      斯國鈞斯國鈞斯國鈞斯國鈞斯國鈞斯國鈞斯國鈞斯國鈞斯國鈞斯國鈞斯國鈞斯國A                                                                                                                                                                          
TW0495BANCSSIT            2018072320180722049520180723001               I O                                                                   000斯國鈞斯國鈞斯國鈞斯國鈞斯國鈞斯國鈞斯國鈞斯國鈞斯國鈞斯國鈞斯國鈞斯國斯國鈞斯國鈞斯國鈞斯國鈞斯國鈞斯國鈞斯國鈞斯國鈞斯國鈞斯國鈞斯國鈞斯國鈞斯國鈞斯國鈞斯國鈞斯國鈞斯國鈞斯               斯國鈞斯國鈞斯國鈞斯國鈞斯國鈞斯國 A123456789    A04951234567890                    TWD               000斯國鈞斯國鈞斯國鈞斯國鈞斯國鈞斯國鈞斯國鈞斯國鈞斯國鈞斯國鈞斯國鈞斯國斯國鈞斯國鈞斯國鈞斯國鈞斯國鈞斯國鈞斯國鈞斯國鈞斯國鈞斯國鈞斯國鈞斯國鈞斯國鈞斯國鈞斯國鈞斯國鈞斯國鈞斯 0495          斯國鈞斯國鈞斯國鈞斯國鈞斯國鈞斯國                     00039837      斯國鈞斯國鈞斯國鈞斯國鈞斯國鈞斯國鈞斯國鈞斯國鈞斯國鈞斯國鈞斯國鈞斯國A                                                                                                                                                                          
TW0495BANCSSIT            2018072320180722049520180723001               I O                                                                   000斯國鈞斯國鈞斯國鈞斯國鈞斯國鈞斯國鈞斯國鈞斯國鈞斯國鈞斯國鈞斯國鈞斯國斯國鈞斯國鈞斯國鈞斯國鈞斯國鈞斯國鈞斯國鈞斯國鈞斯國鈞斯國鈞斯國鈞斯國鈞斯國鈞斯國鈞斯國鈞斯國鈞斯國鈞斯               斯國鈞斯國鈞斯國鈞斯國鈞斯國鈞斯國 A123456789    A04951234567890                    TWD               000斯國鈞斯國鈞斯國鈞斯國鈞斯國鈞斯國鈞斯國鈞斯國鈞斯國鈞斯國鈞斯國鈞斯國斯國鈞斯國鈞斯國鈞斯國鈞斯國鈞斯國鈞斯國鈞斯國鈞斯國鈞斯國鈞斯國鈞斯國鈞斯國鈞斯國鈞斯國鈞斯國鈞斯國鈞斯 0495          斯國鈞斯國鈞斯國鈞斯國鈞斯國鈞斯國                     00039837      斯國鈞斯國鈞斯國鈞斯國鈞斯國鈞斯國鈞斯國鈞斯國鈞斯國鈞斯國鈞斯國鈞斯國A                                                                                                                                                                          
TW0495BANCSSIT            2018072320180722049520180723001               I O                                                                   000斯國鈞斯國鈞斯國鈞斯國鈞斯國鈞斯國鈞斯國鈞斯國鈞斯國鈞斯國鈞斯國鈞斯國斯國鈞斯國鈞斯國鈞斯國鈞斯國鈞斯國鈞斯國鈞斯國鈞斯國鈞斯國鈞斯國鈞斯國鈞斯國鈞斯國鈞斯國鈞斯國鈞斯國鈞斯               斯國鈞斯國鈞斯國鈞斯國鈞斯國鈞斯國 A123456789    A04951234567890                    TWD               000斯國鈞斯國鈞斯國鈞斯國鈞斯國鈞斯國鈞斯國鈞斯國鈞斯國鈞斯國鈞斯國鈞斯國斯國鈞斯國鈞斯國鈞斯國鈞斯國鈞斯國鈞斯國鈞斯國鈞斯國鈞斯國鈞斯國鈞斯國鈞斯國鈞斯國鈞斯國鈞斯國鈞斯國鈞斯 0495          斯國鈞斯國鈞斯國鈞斯國鈞斯國鈞斯國                     00039837      斯國鈞斯國鈞斯國鈞斯國鈞斯國鈞斯國鈞斯國鈞斯國鈞斯國鈞斯國鈞斯國鈞斯國A                                                                                                                                                                          